{
  "contractName": "SalesContract",
  "abi": [
    {
      "inputs": [
        {
          "internalType": "string",
          "name": "description",
          "type": "string"
        },
        {
          "internalType": "uint256",
          "name": "_price",
          "type": "uint256"
        }
      ],
      "payable": true,
      "stateMutability": "payable",
      "type": "constructor"
    },
    {
      "anonymous": false,
      "inputs": [
        {
          "indexed": false,
          "internalType": "string",
          "name": "_msg",
          "type": "string"
        },
        {
          "indexed": false,
          "internalType": "address",
          "name": "user",
          "type": "address"
        },
        {
          "indexed": false,
          "internalType": "uint256",
          "name": "amount",
          "type": "uint256"
        },
        {
          "indexed": false,
          "internalType": "uint256",
          "name": "time",
          "type": "uint256"
        }
      ],
      "name": "UserStatus",
      "type": "event"
    },
    {
      "constant": true,
      "inputs": [],
      "name": "onSale",
      "outputs": [
        {
          "internalType": "bool",
          "name": "",
          "type": "bool"
        }
      ],
      "payable": false,
      "stateMutability": "view",
      "type": "function"
    },
    {
      "constant": true,
      "inputs": [],
      "name": "owner",
      "outputs": [
        {
          "internalType": "address",
          "name": "",
          "type": "address"
        }
      ],
      "payable": false,
      "stateMutability": "view",
      "type": "function"
    },
    {
      "constant": true,
      "inputs": [],
      "name": "price",
      "outputs": [
        {
          "internalType": "uint256",
          "name": "",
          "type": "uint256"
        }
      ],
      "payable": false,
      "stateMutability": "view",
      "type": "function"
    },
    {
      "constant": true,
      "inputs": [],
      "name": "salesDescription",
      "outputs": [
        {
          "internalType": "string",
          "name": "",
          "type": "string"
        }
      ],
      "payable": false,
      "stateMutability": "view",
      "type": "function"
    },
    {
      "constant": true,
      "inputs": [],
      "name": "updatedTime",
      "outputs": [
        {
          "internalType": "uint256",
          "name": "",
          "type": "uint256"
        }
      ],
      "payable": false,
      "stateMutability": "view",
      "type": "function"
    },
    {
      "constant": true,
      "inputs": [],
      "name": "getDescription",
      "outputs": [
        {
          "internalType": "string",
          "name": "",
          "type": "string"
        }
      ],
      "payable": false,
      "stateMutability": "view",
      "type": "function"
    },
    {
      "constant": true,
      "inputs": [],
      "name": "getPrice",
      "outputs": [
        {
          "internalType": "uint256",
          "name": "",
          "type": "uint256"
        }
      ],
      "payable": false,
      "stateMutability": "view",
      "type": "function"
    },
    {
      "constant": true,
      "inputs": [],
      "name": "getOwner",
      "outputs": [
        {
          "internalType": "address",
          "name": "",
          "type": "address"
        }
      ],
      "payable": false,
      "stateMutability": "view",
      "type": "function"
    },
    {
      "constant": true,
      "inputs": [],
      "name": "getOnSale",
      "outputs": [
        {
          "internalType": "bool",
          "name": "",
          "type": "bool"
        }
      ],
      "payable": false,
      "stateMutability": "view",
      "type": "function"
    },
    {
      "constant": false,
      "inputs": [
        {
          "internalType": "string",
          "name": "_description",
          "type": "string"
        }
      ],
      "name": "setDescription",
      "outputs": [],
      "payable": false,
      "stateMutability": "nonpayable",
      "type": "function"
    },
    {
      "constant": false,
      "inputs": [
        {
          "internalType": "uint256",
          "name": "_price",
          "type": "uint256"
        }
      ],
      "name": "setPrice",
      "outputs": [],
      "payable": false,
      "stateMutability": "nonpayable",
      "type": "function"
    },
    {
      "constant": false,
      "inputs": [
        {
          "internalType": "address",
          "name": "user",
          "type": "address"
        }
      ],
      "name": "setOwner",
      "outputs": [],
      "payable": false,
      "stateMutability": "nonpayable",
      "type": "function"
    },
    {
      "constant": false,
      "inputs": [],
      "name": "buy",
      "outputs": [],
      "payable": true,
      "stateMutability": "payable",
      "type": "function"
    },
    {
      "constant": false,
      "inputs": [
        {
          "internalType": "uint256",
          "name": "_price",
          "type": "uint256"
        }
      ],
      "name": "updatePrice",
      "outputs": [],
      "payable": false,
      "stateMutability": "nonpayable",
      "type": "function"
    },
    {
      "constant": false,
      "inputs": [
        {
          "internalType": "string",
          "name": "description",
          "type": "string"
        }
      ],
      "name": "modifyDescription",
      "outputs": [],
      "payable": false,
      "stateMutability": "nonpayable",
      "type": "function"
    },
    {
      "constant": false,
      "inputs": [],
      "name": "putOnSale",
      "outputs": [],
      "payable": false,
      "stateMutability": "nonpayable",
      "type": "function"
    },
    {
      "constant": false,
      "inputs": [],
      "name": "removeFromSale",
      "outputs": [],
      "payable": false,
      "stateMutability": "nonpayable",
      "type": "function"
    }
  ],
  "bytecode": "0x60806040526001600460006101000a81548160ff021916908315150217905550604051620013d4380380620013d4833981810160405260408110156200004457600080fd5b81019080805160405193929190846401000000008211156200006557600080fd5b838201915060208201858111156200007c57600080fd5b82518660018202830111640100000000821117156200009a57600080fd5b8083526020830192505050908051906020019080838360005b83811015620000d0578082015181840152602081019050620000b3565b50505050905090810190601f168015620000fe5780820380516001836020036101000a031916815260200191505b5060405260200180519060200190929190505050336000806101000a81548173ffffffffffffffffffffffffffffffffffffffff021916908373ffffffffffffffffffffffffffffffffffffffff16021790555081600290805190602001906200016a92919062000310565b5080600381905550426001819055507f655ea91e9b534a38f57a6defd5342d512e913da3b052eb62397179eba208e69b8233344260405180806020018573ffffffffffffffffffffffffffffffffffffffff1673ffffffffffffffffffffffffffffffffffffffff168152602001848152602001838152602001828103825286818151815260200191508051906020019080838360005b838110156200021e57808201518184015260208101905062000201565b50505050905090810190601f1680156200024c5780820380516001836020036101000a031916815260200191505b509550505050505060405180910390a17f655ea91e9b534a38f57a6defd5342d512e913da3b052eb62397179eba208e69b33344260405180806020018573ffffffffffffffffffffffffffffffffffffffff1673ffffffffffffffffffffffffffffffffffffffff1681526020018481526020018381526020018281038252600e8152602001807f4974656d206f6e2053616c653a2000000000000000000000000000000000000081525060200194505050505060405180910390a15050620003bf565b828054600181600116156101000203166002900490600052602060002090601f016020900481019282601f106200035357805160ff191683800117855562000384565b8280016001018555821562000384579182015b828111156200038357825182559160200191906001019062000366565b5b50905062000393919062000397565b5090565b620003bc91905b80821115620003b85760008160009055506001016200039e565b5090565b90565b61100580620003cf6000396000f3fe6080604052600436106100fe5760003560e01c8063893d20e81161009557806391b7f5ed1161006457806391b7f5ed1461057557806398d5fdca146105b0578063a035b1fe146105db578063a6f2ae3a14610606578063da78bc6914610610576100fe565b8063893d20e8146103c45780638d6cc56d1461041b5780638da5cb5b1461045657806390c3f38f146104ad576100fe565b806343bdfb72116100d157806343bdfb72146102a35780635987cc19146102ce57806360cb9434146102e55780637f75f593146103ad576100fe565b8063110c01981461010357806313af4035146101935780631a092541146101e4578063326687b914610274575b600080fd5b34801561010f57600080fd5b5061011861063f565b6040518080602001828103825283818151815260200191508051906020019080838360005b8381101561015857808201518184015260208101905061013d565b50505050905090810190601f1680156101855780820380516001836020036101000a031916815260200191505b509250505060405180910390f35b34801561019f57600080fd5b506101e2600480360360208110156101b657600080fd5b81019080803573ffffffffffffffffffffffffffffffffffffffff1690602001909291905050506106dd565b005b3480156101f057600080fd5b506101f9610720565b6040518080602001828103825283818151815260200191508051906020019080838360005b8381101561023957808201518184015260208101905061021e565b50505050905090810190601f1680156102665780820380516001836020036101000a031916815260200191505b509250505060405180910390f35b34801561028057600080fd5b506102896107c2565b604051808215151515815260200191505060405180910390f35b3480156102af57600080fd5b506102b86107d5565b6040518082815260200191505060405180910390f35b3480156102da57600080fd5b506102e36107db565b005b3480156102f157600080fd5b506103ab6004803603602081101561030857600080fd5b810190808035906020019064010000000081111561032557600080fd5b82018360208201111561033757600080fd5b8035906020019184600183028401116401000000008311171561035957600080fd5b91908080601f016020809104026020016040519081016040528093929190818152602001838380828437600081840152601f19601f820116905080830192505050505050509192919290505050610905565b005b3480156103b957600080fd5b506103c2610a60565b005b3480156103d057600080fd5b506103d9610b8a565b604051808273ffffffffffffffffffffffffffffffffffffffff1673ffffffffffffffffffffffffffffffffffffffff16815260200191505060405180910390f35b34801561042757600080fd5b506104546004803603602081101561043e57600080fd5b8101908080359060200190929190505050610bb3565b005b34801561046257600080fd5b5061046b610ccb565b604051808273ffffffffffffffffffffffffffffffffffffffff1673ffffffffffffffffffffffffffffffffffffffff16815260200191505060405180910390f35b3480156104b957600080fd5b50610573600480360360208110156104d057600080fd5b81019080803590602001906401000000008111156104ed57600080fd5b8201836020820111156104ff57600080fd5b8035906020019184600183028401116401000000008311171561052157600080fd5b91908080601f016020809104026020016040519081016040528093929190818152602001838380828437600081840152601f19601f820116905080830192505050505050509192919290505050610cf0565b005b34801561058157600080fd5b506105ae6004803603602081101561059857600080fd5b8101908080359060200190929190505050610d0a565b005b3480156105bc57600080fd5b506105c5610d14565b6040518082815260200191505060405180910390f35b3480156105e757600080fd5b506105f0610d1e565b6040518082815260200191505060405180910390f35b61060e610d24565b005b34801561061c57600080fd5b50610625610f14565b604051808215151515815260200191505060405180910390f35b60028054600181600116156101000203166002900480601f0160208091040260200160405190810160405280929190818152602001828054600181600116156101000203166002900480156106d55780601f106106aa576101008083540402835291602001916106d5565b820191906000526020600020905b8154815290600101906020018083116106b857829003601f168201915b505050505081565b806000806101000a81548173ffffffffffffffffffffffffffffffffffffffff021916908373ffffffffffffffffffffffffffffffffffffffff16021790555050565b606060028054600181600116156101000203166002900480601f0160208091040260200160405190810160405280929190818152602001828054600181600116156101000203166002900480156107b85780601f1061078d576101008083540402835291602001916107b8565b820191906000526020600020905b81548152906001019060200180831161079b57829003601f168201915b5050505050905090565b600460009054906101000a900460ff1681565b60015481565b426001819055506000809054906101000a900473ffffffffffffffffffffffffffffffffffffffff1673ffffffffffffffffffffffffffffffffffffffff163373ffffffffffffffffffffffffffffffffffffffff161461083b57600080fd5b6001600460006101000a81548160ff0219169083151502179055507f655ea91e9b534a38f57a6defd5342d512e913da3b052eb62397179eba208e69b3360004260405180806020018573ffffffffffffffffffffffffffffffffffffffff1673ffffffffffffffffffffffffffffffffffffffff168152602001848152602001838152602001828103825260138152602001807f4974656d204e6f77206973206f6e2073616c650000000000000000000000000081525060200194505050505060405180910390a1565b426001819055506000809054906101000a900473ffffffffffffffffffffffffffffffffffffffff1673ffffffffffffffffffffffffffffffffffffffff163373ffffffffffffffffffffffffffffffffffffffff161461096557600080fd5b806002908051906020019061097b929190610f2b565b507f655ea91e9b534a38f57a6defd5342d512e913da3b052eb62397179eba208e69b813360004260405180806020018573ffffffffffffffffffffffffffffffffffffffff1673ffffffffffffffffffffffffffffffffffffffff168152602001848152602001838152602001828103825286818151815260200191508051906020019080838360005b83811015610a20578082015181840152602081019050610a05565b50505050905090810190601f168015610a4d5780820380516001836020036101000a031916815260200191505b509550505050505060405180910390a150565b426001819055506000809054906101000a900473ffffffffffffffffffffffffffffffffffffffff1673ffffffffffffffffffffffffffffffffffffffff163373ffffffffffffffffffffffffffffffffffffffff1614610ac057600080fd5b6000600460006101000a81548160ff0219169083151502179055507f655ea91e9b534a38f57a6defd5342d512e913da3b052eb62397179eba208e69b3360004260405180806020018573ffffffffffffffffffffffffffffffffffffffff1673ffffffffffffffffffffffffffffffffffffffff168152602001848152602001838152602001828103825260168152602001807f4974656d206e6f204c6f6e676572206f6e2053616c650000000000000000000081525060200194505050505060405180910390a1565b60008060009054906101000a900473ffffffffffffffffffffffffffffffffffffffff16905090565b426001819055506000809054906101000a900473ffffffffffffffffffffffffffffffffffffffff1673ffffffffffffffffffffffffffffffffffffffff163373ffffffffffffffffffffffffffffffffffffffff1614610c1357600080fd5b806003819055507f655ea91e9b534a38f57a6defd5342d512e913da3b052eb62397179eba208e69b336003544260405180806020018573ffffffffffffffffffffffffffffffffffffffff1673ffffffffffffffffffffffffffffffffffffffff1681526020018481526020018381526020018281038252600d8152602001807f507269636520557064617465640000000000000000000000000000000000000081525060200194505050505060405180910390a150565b6000809054906101000a900473ffffffffffffffffffffffffffffffffffffffff1681565b8060029080519060200190610d06929190610f2b565b5050565b8060038190555050565b6000600354905090565b60035481565b6003543410158015610d49575060011515600460009054906101000a900460ff161515145b15610f0657336000806101000a81548173ffffffffffffffffffffffffffffffffffffffff021916908373ffffffffffffffffffffffffffffffffffffffff1602179055506000600460006101000a81548160ff0219169083151502179055507f655ea91e9b534a38f57a6defd5342d512e913da3b052eb62397179eba208e69b33344260405180806020018573ffffffffffffffffffffffffffffffffffffffff1673ffffffffffffffffffffffffffffffffffffffff1681526020018481526020018381526020018281038252600b8152602001807f4974656d20426f7567687400000000000000000000000000000000000000000081525060200194505050505060405180910390a17f655ea91e9b534a38f57a6defd5342d512e913da3b052eb62397179eba208e69b33344260405180806020018573ffffffffffffffffffffffffffffffffffffffff1673ffffffffffffffffffffffffffffffffffffffff168152602001848152602001838152602001828103825260168152602001807f4974656d204e6f204c6f6e676572206f6e2053616c650000000000000000000081525060200194505050505060405180910390a1610f0b565b600080fd5b42600181905550565b6000600460009054906101000a900460ff16905090565b828054600181600116156101000203166002900490600052602060002090601f016020900481019282601f10610f6c57805160ff1916838001178555610f9a565b82800160010185558215610f9a579182015b82811115610f99578251825591602001919060010190610f7e565b5b509050610fa79190610fab565b5090565b610fcd91905b80821115610fc9576000816000905550600101610fb1565b5090565b9056fea265627a7a723158202fa6c867a20cbf36624ab771e864eabb57334c025a82cc8ec141718d97807bb464736f6c634300050c0032",
  "source": "pragma solidity >= 0.5.11;\n\ncontract SalesContract {\n    address public owner;\n    uint256 public updatedTime;\n    string public  salesDescription;\n    uint public price;\n    bool public onSale = true;\n    \n    event UserStatus(string _msg, address user, uint amount, uint256 time);\n    \n    constructor (string memory description, uint _price) public payable {\n        owner = msg.sender;\n        salesDescription = description;\n        price = _price;\n        updatedTime = block.timestamp;\n        emit UserStatus(description, msg.sender, msg.value, block.timestamp);\n        emit UserStatus(\"Item on Sale: \", msg.sender, msg.value, block.timestamp);\n    }\n    function getDescription() public view returns (string memory) {\n        return salesDescription;\n    }\n    \n    function getPrice() public view returns (uint){\n        return price;\n    }\n    \n    function getOwner() public view returns (address){\n        return owner;\n    }\n    \n    function getOnSale() public view returns (bool){\n        return onSale;\n    }\n    \n    function setDescription(string memory _description) public {\n        salesDescription = _description;\n    }\n    \n    function setPrice(uint _price) public{\n        price = _price;\n    }\n    \n    function setOwner(address user) public{\n        owner = user;\n    }\n    \n    function buy()  public payable {\n        if(msg.value >= price && onSale == true){\n            address(this).balance;\n            owner = msg.sender;\n            onSale = false;\n            emit UserStatus(\"Item Bought\", msg.sender, msg.value, block.timestamp);\n            emit UserStatus(\"Item No Longer on Sale\", msg.sender, msg.value, block.timestamp);\n            \n        }\n        else{\n            revert();\n        }\n        updatedTime = block.timestamp;\n    }\n    \n    function updatePrice(uint _price) public onlyOwner{\n        price = _price;\n        emit UserStatus(\"Price Updated\", msg.sender, price, block.timestamp);\n    }\n    \n    function modifyDescription(string memory description) public onlyOwner {\n        salesDescription = description;\n        emit UserStatus(description, msg.sender, 0, block.timestamp);\n    }\n    \n    function putOnSale() public onlyOwner {\n        onSale = true;\n        emit UserStatus(\"Item Now is on sale\",   msg.sender, 0, block.timestamp);\n    }\n    \n    function removeFromSale() public onlyOwner{\n        onSale = false;\n        emit UserStatus(\"Item no Longer on Sale\", msg.sender, 0, block.timestamp);\n    }\n    \n    modifier onlyOwner{\n        updatedTime= block.timestamp;\n        if (msg.sender != owner){\n            revert();\n        }\n        else{\n            _;\n        }\n    }\n}",
  "sourcePath": "/home/juancruz/Flask/Blockchain/contracts/Salescontract.sol",
  "compiler": {
    "name": "solc",
    "version": "0.5.12+commit.7709ece9.Emscripten.clang"
  },
  "schemaVersion": "3.0.18",
  "updatedAt": "2019-11-15T01:05:20.757Z",
  "devdoc": {
    "methods": {}
  },
  "userdoc": {
    "methods": {}
  }
}